{
  "abi": [
    {
      "type": "constructor",
      "inputs": [
        {
          "name": "metadataURI",
          "type": "string",
          "internalType": "string"
        },
        {
          "name": "type_",
          "type": "string",
          "internalType": "string"
        }
      ],
      "stateMutability": "nonpayable"
    },
    {
      "type": "function",
      "name": "addEquippableAddresses",
      "inputs": [
        {
          "name": "partId",
          "type": "uint64",
          "internalType": "uint64"
        },
        {
          "name": "equippableAddresses",
          "type": "address[]",
          "internalType": "address[]"
        }
      ],
      "outputs": [],
      "stateMutability": "nonpayable"
    },
    {
      "type": "function",
      "name": "addPart",
      "inputs": [
        {
          "name": "intakeStruct",
          "type": "tuple",
          "internalType": "struct IRMRKCatalog.IntakeStruct",
          "components": [
            {
              "name": "partId",
              "type": "uint64",
              "internalType": "uint64"
            },
            {
              "name": "part",
              "type": "tuple",
              "internalType": "struct IRMRKCatalog.Part",
              "components": [
                {
                  "name": "itemType",
                  "type": "uint8",
                  "internalType": "enum IRMRKCatalog.ItemType"
                },
                {
                  "name": "z",
                  "type": "uint8",
                  "internalType": "uint8"
                },
                {
                  "name": "equippable",
                  "type": "address[]",
                  "internalType": "address[]"
                },
                {
                  "name": "metadataURI",
                  "type": "string",
                  "internalType": "string"
                }
              ]
            }
          ]
        }
      ],
      "outputs": [],
      "stateMutability": "nonpayable"
    },
    {
      "type": "function",
      "name": "addPartList",
      "inputs": [
        {
          "name": "intakeStructs",
          "type": "tuple[]",
          "internalType": "struct IRMRKCatalog.IntakeStruct[]",
          "components": [
            {
              "name": "partId",
              "type": "uint64",
              "internalType": "uint64"
            },
            {
              "name": "part",
              "type": "tuple",
              "internalType": "struct IRMRKCatalog.Part",
              "components": [
                {
                  "name": "itemType",
                  "type": "uint8",
                  "internalType": "enum IRMRKCatalog.ItemType"
                },
                {
                  "name": "z",
                  "type": "uint8",
                  "internalType": "uint8"
                },
                {
                  "name": "equippable",
                  "type": "address[]",
                  "internalType": "address[]"
                },
                {
                  "name": "metadataURI",
                  "type": "string",
                  "internalType": "string"
                }
              ]
            }
          ]
        }
      ],
      "outputs": [],
      "stateMutability": "nonpayable"
    },
    {
      "type": "function",
      "name": "checkIsEquippable",
      "inputs": [
        {
          "name": "partId",
          "type": "uint64",
          "internalType": "uint64"
        },
        {
          "name": "targetAddress",
          "type": "address",
          "internalType": "address"
        }
      ],
      "outputs": [
        {
          "name": "isEquippable",
          "type": "bool",
          "internalType": "bool"
        }
      ],
      "stateMutability": "view"
    },
    {
      "type": "function",
      "name": "checkIsEquippableToAll",
      "inputs": [
        {
          "name": "partId",
          "type": "uint64",
          "internalType": "uint64"
        }
      ],
      "outputs": [
        {
          "name": "isEquippable",
          "type": "bool",
          "internalType": "bool"
        }
      ],
      "stateMutability": "view"
    },
    {
      "type": "function",
      "name": "getLock",
      "inputs": [],
      "outputs": [
        {
          "name": "isLocked",
          "type": "bool",
          "internalType": "bool"
        }
      ],
      "stateMutability": "view"
    },
    {
      "type": "function",
      "name": "getMetadataURI",
      "inputs": [],
      "outputs": [
        {
          "name": "",
          "type": "string",
          "internalType": "string"
        }
      ],
      "stateMutability": "view"
    },
    {
      "type": "function",
      "name": "getPart",
      "inputs": [
        {
          "name": "partId",
          "type": "uint64",
          "internalType": "uint64"
        }
      ],
      "outputs": [
        {
          "name": "part",
          "type": "tuple",
          "internalType": "struct IRMRKCatalog.Part",
          "components": [
            {
              "name": "itemType",
              "type": "uint8",
              "internalType": "enum IRMRKCatalog.ItemType"
            },
            {
              "name": "z",
              "type": "uint8",
              "internalType": "uint8"
            },
            {
              "name": "equippable",
              "type": "address[]",
              "internalType": "address[]"
            },
            {
              "name": "metadataURI",
              "type": "string",
              "internalType": "string"
            }
          ]
        }
      ],
      "stateMutability": "view"
    },
    {
      "type": "function",
      "name": "getParts",
      "inputs": [
        {
          "name": "partIds",
          "type": "uint64[]",
          "internalType": "uint64[]"
        }
      ],
      "outputs": [
        {
          "name": "parts",
          "type": "tuple[]",
          "internalType": "struct IRMRKCatalog.Part[]",
          "components": [
            {
              "name": "itemType",
              "type": "uint8",
              "internalType": "enum IRMRKCatalog.ItemType"
            },
            {
              "name": "z",
              "type": "uint8",
              "internalType": "uint8"
            },
            {
              "name": "equippable",
              "type": "address[]",
              "internalType": "address[]"
            },
            {
              "name": "metadataURI",
              "type": "string",
              "internalType": "string"
            }
          ]
        }
      ],
      "stateMutability": "view"
    },
    {
      "type": "function",
      "name": "getType",
      "inputs": [],
      "outputs": [
        {
          "name": "",
          "type": "string",
          "internalType": "string"
        }
      ],
      "stateMutability": "view"
    },
    {
      "type": "function",
      "name": "isContributor",
      "inputs": [
        {
          "name": "contributor",
          "type": "address",
          "internalType": "address"
        }
      ],
      "outputs": [
        {
          "name": "isContributor_",
          "type": "bool",
          "internalType": "bool"
        }
      ],
      "stateMutability": "view"
    },
    {
      "type": "function",
      "name": "manageContributor",
      "inputs": [
        {
          "name": "contributor",
          "type": "address",
          "internalType": "address"
        },
        {
          "name": "grantRole",
          "type": "bool",
          "internalType": "bool"
        }
      ],
      "outputs": [],
      "stateMutability": "nonpayable"
    },
    {
      "type": "function",
      "name": "owner",
      "inputs": [],
      "outputs": [
        {
          "name": "owner_",
          "type": "address",
          "internalType": "address"
        }
      ],
      "stateMutability": "view"
    },
    {
      "type": "function",
      "name": "renounceOwnership",
      "inputs": [],
      "outputs": [],
      "stateMutability": "nonpayable"
    },
    {
      "type": "function",
      "name": "resetEquippableAddresses",
      "inputs": [
        {
          "name": "partId",
          "type": "uint64",
          "internalType": "uint64"
        }
      ],
      "outputs": [],
      "stateMutability": "nonpayable"
    },
    {
      "type": "function",
      "name": "setEquippableAddresses",
      "inputs": [
        {
          "name": "partId",
          "type": "uint64",
          "internalType": "uint64"
        },
        {
          "name": "equippableAddresses",
          "type": "address[]",
          "internalType": "address[]"
        }
      ],
      "outputs": [],
      "stateMutability": "nonpayable"
    },
    {
      "type": "function",
      "name": "setEquippableToAll",
      "inputs": [
        {
          "name": "partId",
          "type": "uint64",
          "internalType": "uint64"
        }
      ],
      "outputs": [],
      "stateMutability": "nonpayable"
    },
    {
      "type": "function",
      "name": "setLock",
      "inputs": [],
      "outputs": [],
      "stateMutability": "nonpayable"
    },
    {
      "type": "function",
      "name": "supportsInterface",
      "inputs": [
        {
          "name": "interfaceId",
          "type": "bytes4",
          "internalType": "bytes4"
        }
      ],
      "outputs": [
        {
          "name": "",
          "type": "bool",
          "internalType": "bool"
        }
      ],
      "stateMutability": "view"
    },
    {
      "type": "function",
      "name": "transferOwnership",
      "inputs": [
        {
          "name": "newOwner",
          "type": "address",
          "internalType": "address"
        }
      ],
      "outputs": [],
      "stateMutability": "nonpayable"
    },
    {
      "type": "event",
      "name": "AddedEquippables",
      "inputs": [
        {
          "name": "partId",
          "type": "uint64",
          "indexed": true,
          "internalType": "uint64"
        },
        {
          "name": "equippableAddresses",
          "type": "address[]",
          "indexed": false,
          "internalType": "address[]"
        }
      ],
      "anonymous": false
    },
    {
      "type": "event",
      "name": "AddedPart",
      "inputs": [
        {
          "name": "partId",
          "type": "uint64",
          "indexed": true,
          "internalType": "uint64"
        },
        {
          "name": "itemType",
          "type": "uint8",
          "indexed": true,
          "internalType": "enum IRMRKCatalog.ItemType"
        },
        {
          "name": "zIndex",
          "type": "uint8",
          "indexed": false,
          "internalType": "uint8"
        },
        {
          "name": "equippableAddresses",
          "type": "address[]",
          "indexed": false,
          "internalType": "address[]"
        },
        {
          "name": "metadataURI",
          "type": "string",
          "indexed": false,
          "internalType": "string"
        }
      ],
      "anonymous": false
    },
    {
      "type": "event",
      "name": "ContributorUpdate",
      "inputs": [
        {
          "name": "contributor",
          "type": "address",
          "indexed": true,
          "internalType": "address"
        },
        {
          "name": "isContributor",
          "type": "bool",
          "indexed": false,
          "internalType": "bool"
        }
      ],
      "anonymous": false
    },
    {
      "type": "event",
      "name": "LockSet",
      "inputs": [],
      "anonymous": false
    },
    {
      "type": "event",
      "name": "OwnershipTransferred",
      "inputs": [
        {
          "name": "previousOwner",
          "type": "address",
          "indexed": true,
          "internalType": "address"
        },
        {
          "name": "newOwner",
          "type": "address",
          "indexed": true,
          "internalType": "address"
        }
      ],
      "anonymous": false
    },
    {
      "type": "event",
      "name": "SetEquippableToAll",
      "inputs": [
        {
          "name": "partId",
          "type": "uint64",
          "indexed": true,
          "internalType": "uint64"
        }
      ],
      "anonymous": false
    },
    {
      "type": "event",
      "name": "SetEquippables",
      "inputs": [
        {
          "name": "partId",
          "type": "uint64",
          "indexed": true,
          "internalType": "uint64"
        },
        {
          "name": "equippableAddresses",
          "type": "address[]",
          "indexed": false,
          "internalType": "address[]"
        }
      ],
      "anonymous": false
    },
    {
      "type": "error",
      "name": "RMRKBadConfig",
      "inputs": []
    },
    {
      "type": "error",
      "name": "RMRKIdZeroForbidden",
      "inputs": []
    },
    {
      "type": "error",
      "name": "RMRKLocked",
      "inputs": []
    },
    {
      "type": "error",
      "name": "RMRKNewContributorIsZeroAddress",
      "inputs": []
    },
    {
      "type": "error",
      "name": "RMRKNewOwnerIsZeroAddress",
      "inputs": []
    },
    {
      "type": "error",
      "name": "RMRKNotOwner",
      "inputs": []
    },
    {
      "type": "error",
      "name": "RMRKNotOwnerOrContributor",
      "inputs": []
    },
    {
      "type": "error",
      "name": "RMRKPartAlreadyExists",
      "inputs": []
    },
    {
      "type": "error",
      "name": "RMRKPartDoesNotExist",
      "inputs": []
    },
    {
      "type": "error",
      "name": "RMRKPartIsNotSlot",
      "inputs": []
    },
    {
      "type": "error",
      "name": "RMRKZeroLengthIdsPassed",
      "inputs": []
    }
  ],
  "bytecode": {
    "object": "0x60806040523480156200001157600080fd5b5060405162001db238038062001db283398101604081905262000034916200019d565b81818181620000433362000065565b6200004e82620000b5565b6200005981620000c7565b50505050505062000364565b600080546001600160a01b038381166001600160a01b0319831681178455604051919092169283917f8be0079c531659141344cd1fd0a4f28419497f9722a3daafe3b4186f6b6457e09190a35050565b6006620000c3828262000298565b5050565b6007620000c3828262000298565b634e487b7160e01b600052604160045260246000fd5b600082601f830112620000fd57600080fd5b81516001600160401b03808211156200011a576200011a620000d5565b604051601f8301601f19908116603f01168101908282118183101715620001455762000145620000d5565b81604052838152602092508660208588010111156200016357600080fd5b600091505b8382101562000187578582018301518183018401529082019062000168565b6000602085830101528094505050505092915050565b60008060408385031215620001b157600080fd5b82516001600160401b0380821115620001c957600080fd5b620001d786838701620000eb565b93506020850151915080821115620001ee57600080fd5b50620001fd85828601620000eb565b9150509250929050565b600181811c908216806200021c57607f821691505b6020821081036200023d57634e487b7160e01b600052602260045260246000fd5b50919050565b601f82111562000293576000816000526020600020601f850160051c810160208610156200026e5750805b601f850160051c820191505b818110156200028f578281556001016200027a565b5050505b505050565b81516001600160401b03811115620002b457620002b4620000d5565b620002cc81620002c5845462000207565b8462000243565b602080601f831160018114620003045760008415620002eb5750858301515b600019600386901b1c1916600185901b1785556200028f565b600085815260208120601f198616915b82811015620003355788860151825594840194600190910190840162000314565b5085821015620003545787850151600019600388901b60f8161c191681555b5050505050600190811b01905550565b611a3e80620003746000396000f3fe608060405234801561001057600080fd5b506004361061012c5760003560e01c8063867cc5c4116100ad578063d297ac4311610071578063d297ac431461026d578063dc477d2f1461028d578063dcb79d56146102b9578063f005548c146102cc578063f2fde38b146102df57600080fd5b8063867cc5c41461020457806386a92af7146102175780638da5cb5b1461021f5780639806c6ec1461023a578063b9cd29591461025a57600080fd5b80637084819a116100f45780637084819a146101c3578063715018a6146101d657806379e8ca9e146101de5780637aba6f37146101f15780637e5852d9146101f957600080fd5b806301ffc9a71461013157806315dae03e146101595780631d0d35f51461016e57806327a964841461019b5780636c508e66146101b0575b600080fd5b61014461013f366004611177565b6102f2565b60405190151581526020015b60405180910390f35b610161610329565b60405161015091906111ee565b61014461017c36600461121d565b6001600160a01b03166000908152600160208190526040909120541490565b6101ae6101a93660046114c4565b6103bb565b005b6101ae6101be366004611500565b6103d7565b6101ae6101d1366004611500565b6103e8565b6101ae6103f9565b6101ae6101ec36600461151b565b61040d565b6101ae6104ca565b600254600114610144565b6101ae610212366004611557565b610502565b61016161051b565b6000546040516001600160a01b039091168152602001610150565b61024d610248366004611607565b61052a565b6040516101509190611767565b6101ae6102683660046117cb565b610750565b61028061027b366004611500565b610766565b6040516101509190611818565b61014461029b366004611500565b6001600160401b031660009081526004602052604090205460ff1690565b6101446102c736600461182b565b6108e6565b6101ae6102da3660046117cb565b610a10565b6101ae6102ed36600461121d565b610a22565b60006001600160e01b031982166301ffc9a760e01b148061032357506001600160e01b0319821663d912401f60e01b145b92915050565b6060600780546103389061185e565b80601f01602080910402602001604051908101604052809291908181526020018280546103649061185e565b80156103b15780601f10610386576101008083540402835291602001916103b1565b820191906000526020600020905b81548152906001019060200180831161039457829003601f168201915b5050505050905090565b6103c3610a5a565b6103cb610a99565b6103d481610abc565b50565b6103df610a5a565b6103d481610cfb565b6103f0610a5a565b6103d481610d52565b610401610ddd565b61040b6000610e08565b565b610415610ddd565b6001600160a01b03821661043c5760405163016b812760e71b815260040160405180910390fd5b80610461576001600160a01b0382166000908152600160205260408120819055610480565b6001600160a01b03821660009081526001602081905260409091208190555b50816001600160a01b03167f4b5657e84cf8a17ac5587bbeb3cc2bab9826c4c67b8bad81b4849de49d37aac2826040516104be911515815260200190565b60405180910390a25050565b6104d2610ddd565b60016002556040517f3e423347941b5c6e8c727e4071ffeb6869244ce75121d6a56ba8356086851c6c90600090a1565b61050a610a5a565b610512610a99565b6103d481610e58565b6060600680546103389061185e565b8051606090806001600160401b0381111561054757610547611238565b6040519080825280602002602001820160405280156105a257816020015b61058f60408051608081019091528060008152600060208201526060604082018190529081015290565b8152602001906001900390816105655790505b50915060005b818110156107495760008482815181106105c4576105c4611898565b6020908102919091018101516001600160401b03811660009081526003909252604091829020825160808101909352805491935090829060ff16600281111561060f5761060f61169e565b60028111156106205761062061169e565b81528154610100900460ff16602080830191909152600183018054604080518285028101850182528281529401939283018282801561068857602002820191906000526020600020905b81546001600160a01b0316815260019091019060200180831161066a575b505050505081526020016002820180546106a19061185e565b80601f01602080910402602001604051908101604052809291908181526020018280546106cd9061185e565b801561071a5780601f106106ef5761010080835404028352916020019161071a565b820191906000526020600020905b8154815290600101906020018083116106fd57829003601f168201915b50505050508152505084838151811061073557610735611898565b6020908102919091010152506001016105a8565b5050919050565b610758610a5a565b6107628282610e94565b5050565b61079060408051608081019091528060008152600060208201526060604082018190529081015290565b6001600160401b038216600090815260036020526040908190208151608081019092528054829060ff1660028111156107cb576107cb61169e565b60028111156107dc576107dc61169e565b81528154610100900460ff16602080830191909152600183018054604080518285028101850182528281529401939283018282801561084457602002820191906000526020600020905b81546001600160a01b03168152600190910190602001808311610826575b5050505050815260200160028201805461085d9061185e565b80601f01602080910402602001604051908101604052809291908181526020018280546108899061185e565b80156108d65780601f106108ab576101008083540402835291602001916108d6565b820191906000526020600020905b8154815290600101906020018083116108b957829003601f168201915b5050505050815250509050919050565b6001600160401b03821660009081526004602052604090205460ff168015801561093c575060016001600160401b03841660009081526003602052604090205460ff16600281111561093a5761093a61169e565b145b15610323576001600160401b0383166000908152600360209081526040808320600101805482518185028101850190935280835291929091908301828280156109ae57602002820191906000526020600020905b81546001600160a01b03168152600190910190602001808311610990575b505083519394506000925050505b81811015610a07578281815181106109d6576109d6611898565b60200260200101516001600160a01b0316856001600160a01b0316036109ff5760019350610a07565b6001016109bc565b50505092915050565b610a18610a5a565b6107628282610f4d565b610a2a610ddd565b6001600160a01b038116610a5157604051634ece6ecf60e01b815260040160405180910390fd5b6103d481610e08565b6000546001600160a01b03163314801590610a7b5750610a793361017c565b155b1561040b576040516301eca16760e41b815260040160405180910390fd5b60025460010361040b5760405163ed1fa96f60e01b815260040160405180910390fd5b805160208201516001600160401b038216610aea576040516312c33ce360e01b815260040160405180910390fd5b6001600160401b03821660009081526003602052604081205460ff166002811115610b1757610b1761169e565b14610b3557604051630fbdf8dd60e01b815260040160405180910390fd5b600081516002811115610b4a57610b4a61169e565b03610b6857604051630b65407360e01b815260040160405180910390fd5b600281516002811115610b7d57610b7d61169e565b148015610b8e575060408101515115155b15610bac57604051630b65407360e01b815260040160405180910390fd5b6001600160401b03821660009081526003602052604090208151815483929190829060ff19166001836002811115610be657610be661169e565b0217905550602082810151825460ff9091166101000261ff001990911617825560408301518051610c1d92600185019201906110e3565b5060608201516002820190610c3290826118fe565b5050600580546001810182556000919091527f036b6384b5eca791c62761152d0c79bb0604c104a5fb6f4eb0703f3154bb3db06004820401805460039092166008026101000a6001600160401b0381810219909316928616029190911790555080516002811115610ca557610ca561169e565b826001600160401b03167fc4715b52aed3b9dfb2fbdc63e39e234892ec1dd3811d2c671646dbfd3d32d92e836020015184604001518560600151604051610cee939291906119bd565b60405180910390a3505050565b80610d0581611064565b6001600160401b038216600081815260046020526040808220805460ff19166001179055517f540b0b22993accb6c2b7b0f4a5bd1b7e6419708ef2a68c39f09f01c848ba4fbc9190a25050565b80610d5c81611064565b6001600160401b0382166000908152600360205260408120610d8391600190910190611148565b6001600160401b0382166000818152600460209081526040808320805460ff191690558051928352908201908190527f507a75726ac34d3eb68ebf61f034616ee2030c6193bd4a9efb7e131de6c6adcc916104be916119f5565b6000546001600160a01b0316331461040b57604051631c62d58f60e11b815260040160405180910390fd5b600080546001600160a01b038381166001600160a01b0319831681178455604051919092169283917f8be0079c531659141344cd1fd0a4f28419497f9722a3daafe3b4186f6b6457e09190a35050565b805160005b81811015610e8f57610e87838281518110610e7a57610e7a611898565b6020026020010151610abc565b600101610e5d565b505050565b81610e9e81611064565b6000825111610ec057604051631763fd3d60e21b815260040160405180910390fd5b6001600160401b03831660009081526003602090815260409091208351610eef926001909201918501906110e3565b506001600160401b03831660008181526004602052604090819020805460ff19169055517f507a75726ac34d3eb68ebf61f034616ee2030c6193bd4a9efb7e131de6c6adcc90610f409085906119f5565b60405180910390a2505050565b81610f5781611064565b6000825111610f7957604051631763fd3d60e21b815260040160405180910390fd5b815160005b818110156110055760036000866001600160401b03166001600160401b03168152602001908152602001600020600101848281518110610fc057610fc0611898565b60209081029190910181015182546001808201855560009485529290932090920180546001600160a01b0319166001600160a01b039093169290921790915501610f7e565b506001600160401b03841660008181526004602052604090819020805460ff19169055517f379edf7304a765a58c7eba1fef9bc8675355bf31e276de44d60da39bb04c76ba906110569086906119f5565b60405180910390a250505050565b6001600160401b03811660009081526003602052604081205460ff16908160028111156110935761109361169e565b036110b1576040516307ae018160e21b815260040160405180910390fd5b60028160028111156110c5576110c561169e565b036107625760405163ae6a3b7760e01b815260040160405180910390fd5b828054828255906000526020600020908101928215611138579160200282015b8281111561113857825182546001600160a01b0319166001600160a01b03909116178255602090920191600190910190611103565b50611144929150611162565b5090565b50805460008255906000526020600020908101906103d491905b5b808211156111445760008155600101611163565b60006020828403121561118957600080fd5b81356001600160e01b0319811681146111a157600080fd5b9392505050565b6000815180845260005b818110156111ce576020818501810151868301820152016111b2565b506000602082860101526020601f19601f83011685010191505092915050565b6020815260006111a160208301846111a8565b80356001600160a01b038116811461121857600080fd5b919050565b60006020828403121561122f57600080fd5b6111a182611201565b634e487b7160e01b600052604160045260246000fd5b604080519081016001600160401b038111828210171561127057611270611238565b60405290565b604051608081016001600160401b038111828210171561127057611270611238565b604051601f8201601f191681016001600160401b03811182821017156112c0576112c0611238565b604052919050565b80356001600160401b038116811461121857600080fd5b60006001600160401b038211156112f8576112f8611238565b5060051b60200190565b600082601f83011261131357600080fd5b81356020611328611323836112df565b611298565b8083825260208201915060208460051b87010193508684111561134a57600080fd5b602086015b8481101561136d5761136081611201565b835291830191830161134f565b509695505050505050565b600082601f83011261138957600080fd5b81356001600160401b038111156113a2576113a2611238565b6113b5601f8201601f1916602001611298565b8181528460208386010111156113ca57600080fd5b816020850160208301376000918101602001919091529392505050565b6000604082840312156113f957600080fd5b61140161124e565b905061140c826112c8565b815260208201356001600160401b038082111561142857600080fd5b908301906080828603121561143c57600080fd5b611444611276565b82356003811061145357600080fd5b8152602083013560ff8116811461146957600080fd5b602082015260408301358281111561148057600080fd5b61148c87828601611302565b6040830152506060830135828111156114a457600080fd5b6114b087828601611378565b606083015250602084015250909392505050565b6000602082840312156114d657600080fd5b81356001600160401b038111156114ec57600080fd5b6114f8848285016113e7565b949350505050565b60006020828403121561151257600080fd5b6111a1826112c8565b6000806040838503121561152e57600080fd5b61153783611201565b91506020830135801515811461154c57600080fd5b809150509250929050565b6000602080838503121561156a57600080fd5b82356001600160401b038082111561158157600080fd5b818501915085601f83011261159557600080fd5b81356115a3611323826112df565b81815260059190911b830184019084810190888311156115c257600080fd5b8585015b838110156115fa578035858111156115de5760008081fd5b6115ec8b89838a01016113e7565b8452509186019186016115c6565b5098975050505050505050565b6000602080838503121561161a57600080fd5b82356001600160401b0381111561163057600080fd5b8301601f8101851361164157600080fd5b803561164f611323826112df565b81815260059190911b8201830190838101908783111561166e57600080fd5b928401925b8284101561169357611684846112c8565b82529284019290840190611673565b979650505050505050565b634e487b7160e01b600052602160045260246000fd5b60008151808452602080850194506020840160005b838110156116ee5781516001600160a01b0316875295820195908201906001016116c9565b509495945050505050565b600081516003811061171b57634e487b7160e01b600052602160045260246000fd5b8084525060ff602083015116602084015260408201516080604085015261174560808501826116b4565b90506060830151848203606086015261175e82826111a8565b95945050505050565b600060208083016020845280855180835260408601915060408160051b87010192506020870160005b828110156117be57603f198886030184526117ac8583516116f9565b94509285019290850190600101611790565b5092979650505050505050565b600080604083850312156117de57600080fd5b6117e7836112c8565b915060208301356001600160401b0381111561180257600080fd5b61180e85828601611302565b9150509250929050565b6020815260006111a160208301846116f9565b6000806040838503121561183e57600080fd5b611847836112c8565b915061185560208401611201565b90509250929050565b600181811c9082168061187257607f821691505b60208210810361189257634e487b7160e01b600052602260045260246000fd5b50919050565b634e487b7160e01b600052603260045260246000fd5b601f821115610e8f576000816000526020600020601f850160051c810160208610156118d75750805b601f850160051c820191505b818110156118f6578281556001016118e3565b505050505050565b81516001600160401b0381111561191757611917611238565b61192b81611925845461185e565b846118ae565b602080601f83116001811461196057600084156119485750858301515b600019600386901b1c1916600185901b1785556118f6565b600085815260208120601f198616915b8281101561198f57888601518255948401946001909101908401611970565b50858210156119ad5787850151600019600388901b60f8161c191681555b5050505050600190811b01905550565b60ff841681526060602082015260006119d960608301856116b4565b82810360408401526119eb81856111a8565b9695505050505050565b6020815260006111a160208301846116b456fea2646970667358221220ca0c6c17cd9e9d698a5b481dafcf866fba1102ff430d59ab00b5d9df050684b264736f6c63430008170033",
    "linkReferences": {}
  },
  "methodIdentifiers": {
    "addEquippableAddresses(uint64,address[])": "f005548c",
    "addPart((uint64,(uint8,uint8,address[],string)))": "27a96484",
    "addPartList((uint64,(uint8,uint8,address[],string))[])": "867cc5c4",
    "checkIsEquippable(uint64,address)": "dcb79d56",
    "checkIsEquippableToAll(uint64)": "dc477d2f",
    "getLock()": "7e5852d9",
    "getMetadataURI()": "86a92af7",
    "getPart(uint64)": "d297ac43",
    "getParts(uint64[])": "9806c6ec",
    "getType()": "15dae03e",
    "isContributor(address)": "1d0d35f5",
    "manageContributor(address,bool)": "79e8ca9e",
    "owner()": "8da5cb5b",
    "renounceOwnership()": "715018a6",
    "resetEquippableAddresses(uint64)": "7084819a",
    "setEquippableAddresses(uint64,address[])": "b9cd2959",
    "setEquippableToAll(uint64)": "6c508e66",
    "setLock()": "7aba6f37",
    "supportsInterface(bytes4)": "01ffc9a7",
    "transferOwnership(address)": "f2fde38b"
  },
  "id": 48
}